{
  "contractName": "WCC",
  "abi": [
    {
      "constant": true,
      "inputs": [],
      "name": "name",
      "outputs": [
        {
          "name": "",
          "type": "string"
        }
      ],
      "payable": false,
      "stateMutability": "view",
      "type": "function"
    },
    {
      "constant": false,
      "inputs": [
        {
          "name": "_spender",
          "type": "address"
        },
        {
          "name": "_value",
          "type": "uint256"
        }
      ],
      "name": "approve",
      "outputs": [
        {
          "name": "",
          "type": "bool"
        }
      ],
      "payable": false,
      "stateMutability": "nonpayable",
      "type": "function"
    },
    {
      "constant": true,
      "inputs": [],
      "name": "totalSupply",
      "outputs": [
        {
          "name": "",
          "type": "uint256"
        }
      ],
      "payable": false,
      "stateMutability": "view",
      "type": "function"
    },
    {
      "constant": false,
      "inputs": [
        {
          "name": "_from",
          "type": "address"
        },
        {
          "name": "_to",
          "type": "address"
        },
        {
          "name": "_value",
          "type": "uint256"
        }
      ],
      "name": "transferFrom",
      "outputs": [
        {
          "name": "",
          "type": "bool"
        }
      ],
      "payable": false,
      "stateMutability": "nonpayable",
      "type": "function"
    },
    {
      "constant": true,
      "inputs": [],
      "name": "fundWallet",
      "outputs": [
        {
          "name": "",
          "type": "address"
        }
      ],
      "payable": false,
      "stateMutability": "view",
      "type": "function"
    },
    {
      "constant": false,
      "inputs": [
        {
          "name": "_addr",
          "type": "address"
        }
      ],
      "name": "balanceOf",
      "outputs": [
        {
          "name": "",
          "type": "uint256"
        }
      ],
      "payable": false,
      "stateMutability": "nonpayable",
      "type": "function"
    },
    {
      "constant": true,
      "inputs": [],
      "name": "decimal",
      "outputs": [
        {
          "name": "",
          "type": "uint256"
        }
      ],
      "payable": false,
      "stateMutability": "view",
      "type": "function"
    },
    {
      "constant": true,
      "inputs": [],
      "name": "symbol",
      "outputs": [
        {
          "name": "",
          "type": "string"
        }
      ],
      "payable": false,
      "stateMutability": "view",
      "type": "function"
    },
    {
      "constant": false,
      "inputs": [
        {
          "name": "_to",
          "type": "address"
        },
        {
          "name": "_value",
          "type": "uint256"
        }
      ],
      "name": "transfer",
      "outputs": [
        {
          "name": "",
          "type": "bool"
        }
      ],
      "payable": false,
      "stateMutability": "nonpayable",
      "type": "function"
    },
    {
      "constant": true,
      "inputs": [
        {
          "name": "_owner",
          "type": "address"
        },
        {
          "name": "_spender",
          "type": "address"
        }
      ],
      "name": "allowance",
      "outputs": [
        {
          "name": "",
          "type": "uint256"
        }
      ],
      "payable": false,
      "stateMutability": "view",
      "type": "function"
    },
    {
      "constant": true,
      "inputs": [],
      "name": "unitPrice",
      "outputs": [
        {
          "name": "",
          "type": "uint256"
        }
      ],
      "payable": false,
      "stateMutability": "view",
      "type": "function"
    },
    {
      "inputs": [],
      "payable": false,
      "stateMutability": "nonpayable",
      "type": "constructor"
    },
    {
      "anonymous": false,
      "inputs": [
        {
          "indexed": true,
          "name": "_owner",
          "type": "address"
        },
        {
          "indexed": true,
          "name": "_spender",
          "type": "address"
        },
        {
          "indexed": false,
          "name": "_value",
          "type": "uint256"
        }
      ],
      "name": "Approval",
      "type": "event"
    },
    {
      "anonymous": false,
      "inputs": [
        {
          "indexed": true,
          "name": "_from",
          "type": "address"
        },
        {
          "indexed": true,
          "name": "_to",
          "type": "address"
        }
      ],
      "name": "Transfer",
      "type": "event"
    },
    {
      "constant": false,
      "inputs": [
        {
          "name": "_spender",
          "type": "address"
        },
        {
          "name": "_value",
          "type": "uint256"
        }
      ],
      "name": "approveAndCall",
      "outputs": [
        {
          "name": "",
          "type": "bool"
        }
      ],
      "payable": false,
      "stateMutability": "nonpayable",
      "type": "function"
    }
  ],
  "bytecode": "0x60606040526040805190810160405280600581526020017f68696575630000000000000000000000000000000000000000000000000000008152506002908051906020019061004f9291906100e6565b50341561005b57600080fd5b6103e86000803373ffffffffffffffffffffffffffffffffffffffff1673ffffffffffffffffffffffffffffffffffffffff1681526020019081526020016000208190555033600360006101000a81548173ffffffffffffffffffffffffffffffffffffffff021916908373ffffffffffffffffffffffffffffffffffffffff16021790555061018b565b828054600181600116156101000203166002900490600052602060002090601f016020900481019282601f1061012757805160ff1916838001178555610155565b82800160010185558215610155579182015b82811115610154578251825591602001919060010190610139565b5b5090506101629190610166565b5090565b61018891905b8082111561018457600081600090555060010161016c565b5090565b90565b610bf08061019a6000396000f3006060604052600436106100ba576000357c0100000000000000000000000000000000000000000000000000000000900463ffffffff16806306fdde03146100bf578063095ea7b31461014d57806318160ddd146101a757806323b872dd146101d05780633177029f14610249578063664a1ad6146102a357806370a08231146102f857806376809ce31461034557806395d89b411461036e578063a9059cbb146103fc578063dd62ed3e14610456578063e73faa2d146104c2575b600080fd5b34156100ca57600080fd5b6100d26104eb565b6040518080602001828103825283818151815260200191508051906020019080838360005b838110156101125780820151818401526020810190506100f7565b50505050905090810190601f16801561013f5780820380516001836020036101000a031916815260200191505b509250505060405180910390f35b341561015857600080fd5b61018d600480803573ffffffffffffffffffffffffffffffffffffffff16906020019091908035906020019091905050610589565b604051808215151515815260200191505060405180910390f35b34156101b257600080fd5b6101ba610616565b6040518082815260200191505060405180910390f35b34156101db57600080fd5b61022f600480803573ffffffffffffffffffffffffffffffffffffffff1690602001909190803573ffffffffffffffffffffffffffffffffffffffff1690602001909190803590602001909190505061061c565b604051808215151515815260200191505060405180910390f35b341561025457600080fd5b610289600480803573ffffffffffffffffffffffffffffffffffffffff169060200190919080359060200190919050506108b7565b604051808215151515815260200191505060405180910390f35b34156102ae57600080fd5b6102b66109c2565b604051808273ffffffffffffffffffffffffffffffffffffffff1673ffffffffffffffffffffffffffffffffffffffff16815260200191505060405180910390f35b341561030357600080fd5b61032f600480803573ffffffffffffffffffffffffffffffffffffffff169060200190919050506109e8565b6040518082815260200191505060405180910390f35b341561035057600080fd5b610358610a30565b6040518082815260200191505060405180910390f35b341561037957600080fd5b610381610a35565b6040518080602001828103825283818151815260200191508051906020019080838360005b838110156103c15780820151818401526020810190506103a6565b50505050905090810190601f1680156103ee5780820380516001836020036101000a031916815260200191505b509250505060405180910390f35b341561040757600080fd5b61043c600480803573ffffffffffffffffffffffffffffffffffffffff16906020019091908035906020019091905050610a6e565b604051808215151515815260200191505060405180910390f35b341561046157600080fd5b6104ac600480803573ffffffffffffffffffffffffffffffffffffffff1690602001909190803573ffffffffffffffffffffffffffffffffffffffff16906020019091905050610b38565b6040518082815260200191505060405180910390f35b34156104cd57600080fd5b6104d5610bbf565b6040518082815260200191505060405180910390f35b60028054600181600116156101000203166002900480601f0160208091040260200160405190810160405280929190818152602001828054600181600116156101000203166002900480156105815780601f1061055657610100808354040283529160200191610581565b820191906000526020600020905b81548152906001019060200180831161056457829003601f168201915b505050505081565b600081600160003373ffffffffffffffffffffffffffffffffffffffff1673ffffffffffffffffffffffffffffffffffffffff16815260200190815260200160002060008573ffffffffffffffffffffffffffffffffffffffff1673ffffffffffffffffffffffffffffffffffffffff168152602001908152602001600020819055506001905092915050565b6103e881565b600080600160008673ffffffffffffffffffffffffffffffffffffffff1673ffffffffffffffffffffffffffffffffffffffff16815260200190815260200160002060003373ffffffffffffffffffffffffffffffffffffffff1673ffffffffffffffffffffffffffffffffffffffff168152602001908152602001600020541180156106a95750600082115b8015610731575081600160008673ffffffffffffffffffffffffffffffffffffffff1673ffffffffffffffffffffffffffffffffffffffff16815260200190815260200160002060003373ffffffffffffffffffffffffffffffffffffffff1673ffffffffffffffffffffffffffffffffffffffff1681526020019081526020016000205410155b801561077b5750816000808673ffffffffffffffffffffffffffffffffffffffff1673ffffffffffffffffffffffffffffffffffffffff1681526020019081526020016000205410155b156108ab57816000808673ffffffffffffffffffffffffffffffffffffffff1673ffffffffffffffffffffffffffffffffffffffff16815260200190815260200160002060008282540392505081905550816000808573ffffffffffffffffffffffffffffffffffffffff1673ffffffffffffffffffffffffffffffffffffffff1681526020019081526020016000206000828254019250508190555081600160008673ffffffffffffffffffffffffffffffffffffffff1673ffffffffffffffffffffffffffffffffffffffff16815260200190815260200160002060003373ffffffffffffffffffffffffffffffffffffffff1673ffffffffffffffffffffffffffffffffffffffff16815260200190815260200160002060008282540392505081905550600190506108b0565b600090505b9392505050565b600081600160003373ffffffffffffffffffffffffffffffffffffffff1673ffffffffffffffffffffffffffffffffffffffff16815260200190815260200160002060008573ffffffffffffffffffffffffffffffffffffffff1673ffffffffffffffffffffffffffffffffffffffff168152602001908152602001600020819055506109448383610589565b156109b7578273ffffffffffffffffffffffffffffffffffffffff163373ffffffffffffffffffffffffffffffffffffffff167f8c5be1e5ebec7d5bd14f71427d1e84f3dd0314c0f7b2291e5b200ac8c7c3b925846040518082815260200191505060405180910390a3600190506109bc565b600090505b92915050565b600360009054906101000a900473ffffffffffffffffffffffffffffffffffffffff1681565b60008060008373ffffffffffffffffffffffffffffffffffffffff1673ffffffffffffffffffffffffffffffffffffffff168152602001908152602001600020549050919050565b600081565b6040805190810160405280600381526020017f574343000000000000000000000000000000000000000000000000000000000081525081565b60008082118015610a875750610a83336109e8565b8211155b15610b2d57816000803373ffffffffffffffffffffffffffffffffffffffff1673ffffffffffffffffffffffffffffffffffffffff16815260200190815260200160002060008282540392505081905550816000808573ffffffffffffffffffffffffffffffffffffffff1673ffffffffffffffffffffffffffffffffffffffff1681526020019081526020016000206000828254019250508190555060019050610b32565b600090505b92915050565b6000600160008473ffffffffffffffffffffffffffffffffffffffff1673ffffffffffffffffffffffffffffffffffffffff16815260200190815260200160002060008373ffffffffffffffffffffffffffffffffffffffff1673ffffffffffffffffffffffffffffffffffffffff16815260200190815260200160002054905092915050565b6001815600a165627a7a723058203fca967f4f5d8d40fd3950979e4914796556fc8aa44ae6fd8abffd4a0c10c3c30029",
  "source": "pragma solidity ^0.4.21;\n\ncontract ERC20 {\n\n   event Approval(address indexed _owner, address indexed _spender, uint256 _value);\n   event Transfer(address indexed _from, address indexed _to);\n\n   mapping(address => uint256) internal _balanceOf;\n   mapping(address => mapping(address => uint256)) internal _allowances;\n\n   function balanceOf(address _addr)\n   returns(uint256) {\n      return _balanceOf[_addr];\n   }\n\n   function transfer(address _to, uint256 _value)\n   public returns(bool) {\n      if (_value > 0 && _value <= balanceOf(msg.sender)) {\n         _balanceOf[msg.sender] -= _value;\n         _balanceOf[_to] += _value;\n         return true;\n      }\n      return false;\n   }\n\n   function transferFrom(address _from, address _to, uint256 _value)\n   public returns (bool) {\n      if (_allowances[_from][msg.sender] > 0 &&\n          _value > 0 &&\n             _allowances[_from][msg.sender] >= _value &&\n                _balanceOf[_from] >= _value) {\n         _balanceOf[_from] -= _value;\n      _balanceOf[_to] += _value;\n\n      _allowances[_from][msg.sender] -= _value;\n      return true;\n      }\n      return false;\n   }\n\n   function approve(address _spender, uint256 _value)\n   public returns (bool) {\n      _allowances[msg.sender][_spender] = _value;\n      return true;\n   }\n\n   function allowance(address _owner, address _spender)\n   public constant returns (uint256) {\n      return _allowances[_owner][_spender];\n   }\n\n}\n\ncontract WCC is ERC20 {\n\n   string public name = \"hieuc\";\n   uint256 public constant totalSupply = 1000;\n   uint256 public constant decimal = 0;\n   uint256 public constant unitPrice = 1;\n   string public constant symbol = \"WCC\";\n   address public fundWallet;\n\n   function WCC() {\n      _balanceOf[msg.sender] = totalSupply;\n      fundWallet = msg.sender;\n   }\n\n   function approveAndCall(address _spender, uint256 _value)\n   returns (bool) {\n      _allowances[msg.sender][_spender] = _value;\n      if(approve(_spender, _value)){\n        emit Approval(msg.sender, _spender, _value);\n        return true;\n      }\n\n      return false;\n   }\n}\n\n\n",
  "sourcePath": "/Users/letoan/WCCoin/contracts/WCC.sol",
  "compiler": {
    "name": "solc",
    "version": "0.4.21+commit.dfe3193c.Emscripten.clang"
  },
  "schemaVersion": "2.0.0",
  "updatedAt": "2018-04-26T08:00:42.408Z"
}