{
  "contractName": "WorldcupBetting",
  "abi": [
    {
      "constant": true,
      "inputs": [],
      "name": "total",
      "outputs": [
        {
          "name": "",
          "type": "uint256"
        }
      ],
      "payable": false,
      "stateMutability": "view",
      "type": "function"
    },
    {
      "constant": true,
      "inputs": [
        {
          "name": "",
          "type": "address"
        }
      ],
      "name": "withdrawals",
      "outputs": [
        {
          "name": "",
          "type": "uint256"
        }
      ],
      "payable": false,
      "stateMutability": "view",
      "type": "function"
    },
    {
      "constant": true,
      "inputs": [],
      "name": "winning",
      "outputs": [
        {
          "name": "",
          "type": "uint8"
        }
      ],
      "payable": false,
      "stateMutability": "view",
      "type": "function"
    },
    {
      "constant": true,
      "inputs": [
        {
          "name": "",
          "type": "uint8"
        },
        {
          "name": "",
          "type": "uint256"
        }
      ],
      "name": "all",
      "outputs": [
        {
          "name": "amount",
          "type": "uint256"
        },
        {
          "name": "player",
          "type": "address"
        }
      ],
      "payable": false,
      "stateMutability": "view",
      "type": "function"
    },
    {
      "constant": true,
      "inputs": [],
      "name": "owner",
      "outputs": [
        {
          "name": "",
          "type": "address"
        }
      ],
      "payable": false,
      "stateMutability": "view",
      "type": "function"
    },
    {
      "constant": true,
      "inputs": [
        {
          "name": "",
          "type": "uint8"
        }
      ],
      "name": "totals",
      "outputs": [
        {
          "name": "",
          "type": "uint256"
        }
      ],
      "payable": false,
      "stateMutability": "view",
      "type": "function"
    },
    {
      "constant": true,
      "inputs": [
        {
          "name": "",
          "type": "uint8"
        }
      ],
      "name": "counts",
      "outputs": [
        {
          "name": "",
          "type": "uint256"
        }
      ],
      "payable": false,
      "stateMutability": "view",
      "type": "function"
    },
    {
      "inputs": [],
      "payable": false,
      "stateMutability": "nonpayable",
      "type": "constructor"
    },
    {
      "constant": false,
      "inputs": [
        {
          "name": "_team",
          "type": "uint8"
        }
      ],
      "name": "setWinning",
      "outputs": [],
      "payable": false,
      "stateMutability": "nonpayable",
      "type": "function"
    },
    {
      "constant": false,
      "inputs": [
        {
          "name": "_team",
          "type": "uint8"
        }
      ],
      "name": "bet",
      "outputs": [
        {
          "name": "",
          "type": "uint256"
        }
      ],
      "payable": true,
      "stateMutability": "payable",
      "type": "function"
    },
    {
      "constant": false,
      "inputs": [],
      "name": "withdraw",
      "outputs": [],
      "payable": false,
      "stateMutability": "nonpayable",
      "type": "function"
    }
  ],
  "bytecode": "0x608060405260006002556000600460006101000a81548160ff021916908360ff1602179055506000600660006101000a81548160ff021916908360ff16021790555034801561004d57600080fd5b50336000806101000a81548173ffffffffffffffffffffffffffffffffffffffff021916908373ffffffffffffffffffffffffffffffffffffffff1602179055506109108061009d6000396000f3006080604052600436106100a4576000357c0100000000000000000000000000000000000000000000000000000000900463ffffffff1680632ddbd13a146100a95780633ccfd60b146100d45780637a9262a2146100eb578063853a1b9014610142578063884e07a0146101735780638da5cb5b146101f45780639cde09dc1461024b578063c7f9e9d61461028f578063d0821b0e146102bf578063edb6f7e7146102f6575b600080fd5b3480156100b557600080fd5b506100be61033a565b6040518082815260200191505060405180910390f35b3480156100e057600080fd5b506100e9610340565b005b3480156100f757600080fd5b5061012c600480360381019080803573ffffffffffffffffffffffffffffffffffffffff169060200190929190505050610482565b6040518082815260200191505060405180910390f35b34801561014e57600080fd5b5061015761049a565b604051808260ff1660ff16815260200191505060405180910390f35b34801561017f57600080fd5b506101ab600480360381019080803560ff169060200190929190803590602001909291905050506104ad565b604051808381526020018273ffffffffffffffffffffffffffffffffffffffff1673ffffffffffffffffffffffffffffffffffffffff1681526020019250505060405180910390f35b34801561020057600080fd5b5061020961050d565b604051808273ffffffffffffffffffffffffffffffffffffffff1673ffffffffffffffffffffffffffffffffffffffff16815260200191505060405180910390f35b34801561025757600080fd5b50610279600480360381019080803560ff169060200190929190505050610532565b6040518082815260200191505060405180910390f35b34801561029b57600080fd5b506102bd600480360381019080803560ff16906020019092919050505061054a565b005b6102e0600480360381019080803560ff1690602001909291905050506106fc565b6040518082815260200191505060405180910390f35b34801561030257600080fd5b50610324600480360381019080803560ff16906020019092919050505061089c565b6040518082815260200191505060405180910390f35b60025481565b600080600660009054906101000a900460ff1660ff161415151561036357600080fd5b6000600760003373ffffffffffffffffffffffffffffffffffffffff1673ffffffffffffffffffffffffffffffffffffffff168152602001908152602001600020541115156103b157600080fd5b600760003373ffffffffffffffffffffffffffffffffffffffff1673ffffffffffffffffffffffffffffffffffffffff1681526020019081526020016000205490506000600760003373ffffffffffffffffffffffffffffffffffffffff1673ffffffffffffffffffffffffffffffffffffffff168152602001908152602001600020819055503373ffffffffffffffffffffffffffffffffffffffff166108fc829081150290604051600060405180830381858888f1935050505015801561047e573d6000803e3d6000fd5b5050565b60076020528060005260406000206000915090505481565b600660009054906101000a900460ff1681565b6001602052816000526040600020818154811015156104c857fe5b9060005260206000209060020201600091509150508060000154908060010160009054906101000a900473ffffffffffffffffffffffffffffffffffffffff16905082565b6000809054906101000a900473ffffffffffffffffffffffffffffffffffffffff1681565b60036020528060005260406000206000915090505481565b6000806000809054906101000a900473ffffffffffffffffffffffffffffffffffffffff1673ffffffffffffffffffffffffffffffffffffffff163373ffffffffffffffffffffffffffffffffffffffff161415156105a857600080fd5b82600660006101000a81548160ff021916908360ff160217905550600091505b60016000600660009054906101000a900460ff1660ff1660ff168152602001908152602001600020805490508210156106f75760016000600660009054906101000a900460ff1660ff1660ff1681526020019081526020016000208281548110151561063057fe5b9060005260206000209060020201905060025460036000600660009054906101000a900460ff1660ff1660ff16815260200190815260200160002054826000015481151561067a57fe5b0402600760008360010160009054906101000a900473ffffffffffffffffffffffffffffffffffffffff1673ffffffffffffffffffffffffffffffffffffffff1673ffffffffffffffffffffffffffffffffffffffff168152602001908152602001600020600082825401925050819055506001820191506105c8565b505050565b60006107066108b4565b6000600660009054906101000a900460ff1660ff1614151561072757600080fd5b60003411151561073657600080fd5b60408051908101604052803481526020013373ffffffffffffffffffffffffffffffffffffffff168152509050600160008460ff1660ff16815260200190815260200160002081908060018154018082558091505090600182039060005260206000209060020201600090919290919091506000820151816000015560208201518160010160006101000a81548173ffffffffffffffffffffffffffffffffffffffff021916908373ffffffffffffffffffffffffffffffffffffffff1602179055505050506001600460008282829054906101000a900460ff160192506101000a81548160ff021916908360ff1602179055506001600560008560ff1660ff1681526020019081526020016000206000828254019250508190555080600001516002600082825401925050819055508060000151600360008560ff1660ff16815260200190815260200160002060008282540192505081905550600254915050919050565b60056020528060005260406000206000915090505481565b604080519081016040528060008152602001600073ffffffffffffffffffffffffffffffffffffffff16815250905600a165627a7a7230582095604aa4a81c0ebb4c4073efcae131af86634a640044679702498fe6548216710029",
  "source": "pragma solidity ^0.4.21;\r\n\r\ncontract WorldcupBetting {\r\n\r\n    struct Bet {\r\n        uint256 amount;\r\n        address player;\r\n    }\r\n\r\n    address public owner;\r\n\r\n    mapping(uint8 => Bet[]) public all;\r\n\r\n    uint256 public total = 0;\r\n    mapping(uint8 => uint256) public totals;\r\n\r\n    uint8 count = 0;\r\n    mapping(uint8 => uint256) public counts;\r\n\r\n    uint8 public winning = 0;\r\n    mapping(address => uint256) public withdrawals;\r\n\r\n    function WorldcupBetting() public {\r\n        owner = msg.sender;\r\n    }\r\n\r\n    function setWinning(uint8 _team) public {\r\n        require(msg.sender == owner);\r\n\r\n        winning = _team;\r\n\r\n        for (uint256 i = 0; i < all[winning].length; i += 1) {\r\n            Bet storage bet_ = all[winning][i];\r\n            withdrawals[bet_.player] += (bet_.amount / totals[winning]) * total;\r\n        }\r\n    }\r\n\r\n    function bet(uint8 _team) public payable returns (uint256) {\r\n        require(winning == 0);\r\n        require(msg.value > 0);\r\n\r\n        Bet memory bet_ = Bet(msg.value, msg.sender);\r\n\r\n        all[_team].push(bet_);\r\n\r\n        count += 1;\r\n        counts[_team] += 1;\r\n\r\n        total += bet_.amount;\r\n        totals[_team] += bet_.amount;\r\n\r\n        return total;\r\n    }\r\n\r\n    function withdraw() public {\r\n        require(winning != 0);\r\n        require(withdrawals[msg.sender] > 0);\r\n\r\n        uint256 value = withdrawals[msg.sender];\r\n        withdrawals[msg.sender] = 0;\r\n        msg.sender.transfer(value);\r\n    }\r\n}\r\n",
  "sourcePath": "D:\\Kins\\Blockchain\\football-betting\\contracts\\WorldcupBetting.sol",
  "compiler": {
    "name": "solc",
    "version": "0.4.23+commit.124ca40d.Emscripten.clang"
  },
  "schemaVersion": "2.0.0",
  "updatedAt": "2018-04-23T08:19:08.394Z"
}