{
  "contractName": "WorldcupBetting",
  "abi": [
    {
      "constant": true,
      "inputs": [],
      "name": "total",
      "outputs": [
        {
          "name": "",
          "type": "uint256"
        }
      ],
      "payable": false,
      "stateMutability": "view",
      "type": "function"
    },
    {
      "constant": true,
      "inputs": [
        {
          "name": "",
          "type": "address"
        }
      ],
      "name": "withdrawals",
      "outputs": [
        {
          "name": "",
          "type": "uint256"
        }
      ],
      "payable": false,
      "stateMutability": "view",
      "type": "function"
    },
    {
      "constant": true,
      "inputs": [],
      "name": "winning",
      "outputs": [
        {
          "name": "",
          "type": "uint8"
        }
      ],
      "payable": false,
      "stateMutability": "view",
      "type": "function"
    },
    {
      "constant": true,
      "inputs": [
        {
          "name": "",
          "type": "uint8"
        },
        {
          "name": "",
          "type": "uint256"
        }
      ],
      "name": "all",
      "outputs": [
        {
          "name": "amount",
          "type": "uint256"
        },
        {
          "name": "player",
          "type": "address"
        }
      ],
      "payable": false,
      "stateMutability": "view",
      "type": "function"
    },
    {
      "constant": true,
      "inputs": [],
      "name": "owner",
      "outputs": [
        {
          "name": "",
          "type": "address"
        }
      ],
      "payable": false,
      "stateMutability": "view",
      "type": "function"
    },
    {
      "constant": true,
      "inputs": [
        {
          "name": "",
          "type": "uint8"
        }
      ],
      "name": "totals",
      "outputs": [
        {
          "name": "",
          "type": "uint256"
        }
      ],
      "payable": false,
      "stateMutability": "view",
      "type": "function"
    },
    {
      "constant": true,
      "inputs": [
        {
          "name": "",
          "type": "uint8"
        }
      ],
      "name": "counts",
      "outputs": [
        {
          "name": "",
          "type": "uint256"
        }
      ],
      "payable": false,
      "stateMutability": "view",
      "type": "function"
    },
    {
      "inputs": [],
      "payable": false,
      "stateMutability": "nonpayable",
      "type": "constructor"
    },
    {
      "constant": false,
      "inputs": [
        {
          "name": "_team",
          "type": "uint8"
        }
      ],
      "name": "setWinning",
      "outputs": [],
      "payable": false,
      "stateMutability": "nonpayable",
      "type": "function"
    },
    {
      "constant": false,
      "inputs": [
        {
          "name": "_team",
          "type": "uint8"
        }
      ],
      "name": "bet",
      "outputs": [
        {
          "name": "",
          "type": "uint256"
        }
      ],
      "payable": true,
      "stateMutability": "payable",
      "type": "function"
    },
    {
      "constant": false,
      "inputs": [],
      "name": "withdraw",
      "outputs": [],
      "payable": false,
      "stateMutability": "nonpayable",
      "type": "function"
    }
  ],
  "bytecode": "0x606060405260006002556000600460006101000a81548160ff021916908360ff1602179055506000600660006101000a81548160ff021916908360ff160217905550341561004c57600080fd5b336000806101000a81548173ffffffffffffffffffffffffffffffffffffffff021916908373ffffffffffffffffffffffffffffffffffffffff1602179055506109428061009b6000396000f3006060604052600436106100a4576000357c0100000000000000000000000000000000000000000000000000000000900463ffffffff1680632ddbd13a146100a95780633ccfd60b146100d25780637a9262a2146100e7578063853a1b9014610134578063884e07a0146101635780638da5cb5b146101d95780639cde09dc1461022e578063c7f9e9d614610268578063d0821b0e1461028e578063edb6f7e7146102bd575b600080fd5b34156100b457600080fd5b6100bc6102f7565b6040518082815260200191505060405180910390f35b34156100dd57600080fd5b6100e56102fd565b005b34156100f257600080fd5b61011e600480803573ffffffffffffffffffffffffffffffffffffffff16906020019091905050610438565b6040518082815260200191505060405180910390f35b341561013f57600080fd5b610147610450565b604051808260ff1660ff16815260200191505060405180910390f35b341561016e57600080fd5b610190600480803560ff16906020019091908035906020019091905050610463565b604051808381526020018273ffffffffffffffffffffffffffffffffffffffff1673ffffffffffffffffffffffffffffffffffffffff1681526020019250505060405180910390f35b34156101e457600080fd5b6101ec6104c3565b604051808273ffffffffffffffffffffffffffffffffffffffff1673ffffffffffffffffffffffffffffffffffffffff16815260200191505060405180910390f35b341561023957600080fd5b610252600480803560ff169060200190919050506104e8565b6040518082815260200191505060405180910390f35b341561027357600080fd5b61028c600480803560ff16906020019091905050610500565b005b6102a7600480803560ff169060200190919050506106b2565b6040518082815260200191505060405180910390f35b34156102c857600080fd5b6102e1600480803560ff1690602001909190505061084e565b6040518082815260200191505060405180910390f35b60025481565b600080600660009054906101000a900460ff1660ff161415151561032057600080fd5b6000600760003373ffffffffffffffffffffffffffffffffffffffff1673ffffffffffffffffffffffffffffffffffffffff1681526020019081526020016000205411151561036e57600080fd5b600760003373ffffffffffffffffffffffffffffffffffffffff1673ffffffffffffffffffffffffffffffffffffffff1681526020019081526020016000205490506000600760003373ffffffffffffffffffffffffffffffffffffffff1673ffffffffffffffffffffffffffffffffffffffff168152602001908152602001600020819055503373ffffffffffffffffffffffffffffffffffffffff166108fc829081150290604051600060405180830381858888f19350505050151561043557600080fd5b50565b60076020528060005260406000206000915090505481565b600660009054906101000a900460ff1681565b60016020528160005260406000208181548110151561047e57fe5b9060005260206000209060020201600091509150508060000154908060010160009054906101000a900473ffffffffffffffffffffffffffffffffffffffff16905082565b6000809054906101000a900473ffffffffffffffffffffffffffffffffffffffff1681565b60036020528060005260406000206000915090505481565b6000806000809054906101000a900473ffffffffffffffffffffffffffffffffffffffff1673ffffffffffffffffffffffffffffffffffffffff163373ffffffffffffffffffffffffffffffffffffffff1614151561055e57600080fd5b82600660006101000a81548160ff021916908360ff160217905550600091505b60016000600660009054906101000a900460ff1660ff1660ff168152602001908152602001600020805490508210156106ad5760016000600660009054906101000a900460ff1660ff1660ff168152602001908152602001600020828154811015156105e657fe5b9060005260206000209060020201905060025460036000600660009054906101000a900460ff1660ff1660ff16815260200190815260200160002054826000015481151561063057fe5b0402600760008360010160009054906101000a900473ffffffffffffffffffffffffffffffffffffffff1673ffffffffffffffffffffffffffffffffffffffff1673ffffffffffffffffffffffffffffffffffffffff1681526020019081526020016000206000828254019250508190555060018201915061057e565b505050565b60006106bc610866565b6000600660009054906101000a900460ff1660ff161415156106dd57600080fd5b6000341115156106ec57600080fd5b60408051908101604052803481526020013373ffffffffffffffffffffffffffffffffffffffff168152509050600160008460ff1660ff16815260200190815260200160002080548060010182816107449190610896565b916000526020600020906002020160008390919091506000820151816000015560208201518160010160006101000a81548173ffffffffffffffffffffffffffffffffffffffff021916908373ffffffffffffffffffffffffffffffffffffffff1602179055505050506001600460008282829054906101000a900460ff160192506101000a81548160ff021916908360ff1602179055506001600560008560ff1660ff1681526020019081526020016000206000828254019250508190555080600001516002600082825401925050819055508060000151600360008560ff1660ff16815260200190815260200160002060008282540192505081905550600254915050919050565b60056020528060005260406000206000915090505481565b604080519081016040528060008152602001600073ffffffffffffffffffffffffffffffffffffffff1681525090565b8154818355818115116108c3576002028160020283600052602060002091820191016108c291906108c8565b5b505050565b61091391905b8082111561090f576000808201600090556001820160006101000a81549073ffffffffffffffffffffffffffffffffffffffff0219169055506002016108ce565b5090565b905600a165627a7a723058208a4e43a8bc1c8d413a022f8b0b5bd45661057b8463c46ee3d22057c2df99b4440029",
  "source": "pragma solidity ^0.4.21;\n\ncontract WorldcupBetting {\n\n    struct Bet {\n        uint256 amount;\n        address player;\n    }\n\n    address public owner;\n\n    mapping(uint8 => Bet[]) public all;\n\n    uint256 public total = 0;\n    mapping(uint8 => uint256) public totals;\n\n    uint8 count = 0;\n    mapping(uint8 => uint256) public counts;\n\n    uint8 public winning = 0;\n    mapping(address => uint256) public withdrawals;\n\n    function WorldcupBetting() public {\n        owner = msg.sender;\n    }\n\n    function setWinning(uint8 _team) public {\n        require(msg.sender == owner);\n\n        winning = _team;\n\n        for (uint256 i = 0; i < all[winning].length; i += 1) {\n            Bet storage bet_ = all[winning][i];\n            withdrawals[bet_.player] += (bet_.amount / totals[winning]) * total;\n        }\n    }\n\n    function bet(uint8 _team) public payable returns (uint256) {\n        require(winning == 0);\n        require(msg.value > 0);\n\n        Bet memory bet_ = Bet(msg.value, msg.sender);\n\n        all[_team].push(bet_);\n\n        count += 1;\n        counts[_team] += 1;\n\n        total += bet_.amount;\n        totals[_team] += bet_.amount;\n\n        return total;\n    }\n\n    function withdraw() public {\n        require(winning != 0);\n        require(withdrawals[msg.sender] > 0);\n\n        uint256 value = withdrawals[msg.sender];\n        withdrawals[msg.sender] = 0;\n        msg.sender.transfer(value);\n    }\n}\n",
  "sourcePath": "/Users/letoan/WCCoin/contracts/WorldcupBetting.sol",
  "compiler": {
    "name": "solc",
    "version": "0.4.21+commit.dfe3193c.Emscripten.clang"
  },
  "schemaVersion": "2.0.0",
  "updatedAt": "2018-04-26T08:00:22.182Z"
}